{
  "address": "0xBbc18b580256A82dC0F9A86152b8B22E7C1C8005",
  "abi": [
    {
      "inputs": [],
      "name": "LendingPool__AmountIsZero",
      "type": "error"
    },
    {
      "inputs": [],
      "name": "LendingPool__HealthFactorTooLow",
      "type": "error"
    },
    {
      "inputs": [],
      "name": "LendingPool__NotEnoughTokenInPoolToBorrow",
      "type": "error"
    },
    {
      "inputs": [],
      "name": "LendingPool__TokenNotSupported",
      "type": "error"
    },
    {
      "inputs": [],
      "name": "LendingPool__TransferFailed",
      "type": "error"
    },
    {
      "anonymous": false,
      "inputs": [
        {
          "indexed": true,
          "internalType": "address",
          "name": "previousOwner",
          "type": "address"
        },
        {
          "indexed": true,
          "internalType": "address",
          "name": "newOwner",
          "type": "address"
        }
      ],
      "name": "OwnershipTransferred",
      "type": "event"
    },
    {
      "inputs": [],
      "name": "LIQUIDATION_TRESHOLD",
      "outputs": [
        {
          "internalType": "uint256",
          "name": "",
          "type": "uint256"
        }
      ],
      "stateMutability": "view",
      "type": "function"
    },
    {
      "inputs": [],
      "name": "MIN_HEALTH_FACTOR",
      "outputs": [
        {
          "internalType": "uint256",
          "name": "",
          "type": "uint256"
        }
      ],
      "stateMutability": "view",
      "type": "function"
    },
    {
      "inputs": [
        {
          "internalType": "address",
          "name": "tokenAddress",
          "type": "address"
        },
        {
          "internalType": "address",
          "name": "priceFeedAddress",
          "type": "address"
        }
      ],
      "name": "addTokenToPriceFeedAddress",
      "outputs": [],
      "stateMutability": "nonpayable",
      "type": "function"
    },
    {
      "inputs": [
        {
          "internalType": "address",
          "name": "tokenAddress",
          "type": "address"
        },
        {
          "internalType": "uint256",
          "name": "amount",
          "type": "uint256"
        }
      ],
      "name": "borrow",
      "outputs": [],
      "stateMutability": "nonpayable",
      "type": "function"
    },
    {
      "inputs": [
        {
          "internalType": "address",
          "name": "tokenAddress",
          "type": "address"
        },
        {
          "internalType": "uint256",
          "name": "amount",
          "type": "uint256"
        }
      ],
      "name": "deposit",
      "outputs": [],
      "stateMutability": "payable",
      "type": "function"
    },
    {
      "inputs": [
        {
          "internalType": "address",
          "name": "userAddress",
          "type": "address"
        }
      ],
      "name": "getHealthFactor",
      "outputs": [
        {
          "internalType": "uint256",
          "name": "",
          "type": "uint256"
        }
      ],
      "stateMutability": "view",
      "type": "function"
    },
    {
      "inputs": [
        {
          "internalType": "address",
          "name": "tokenAddress",
          "type": "address"
        }
      ],
      "name": "getTokenToPriceFeedAddress",
      "outputs": [
        {
          "internalType": "address",
          "name": "",
          "type": "address"
        }
      ],
      "stateMutability": "view",
      "type": "function"
    },
    {
      "inputs": [],
      "name": "owner",
      "outputs": [
        {
          "internalType": "address",
          "name": "",
          "type": "address"
        }
      ],
      "stateMutability": "view",
      "type": "function"
    },
    {
      "inputs": [],
      "name": "renounceOwnership",
      "outputs": [],
      "stateMutability": "nonpayable",
      "type": "function"
    },
    {
      "inputs": [
        {
          "internalType": "address",
          "name": "newOwner",
          "type": "address"
        }
      ],
      "name": "transferOwnership",
      "outputs": [],
      "stateMutability": "nonpayable",
      "type": "function"
    }
  ],
  "transactionHash": "0x820bd1781a97b6276a8f2192eb5fbcce792599d2cbb584647759be74d7b1c633",
  "args": [],
  "numDeployments": 1,
  "solcInputHash": "7075d87d7b42ee1fa23f0248fe765b21",
  "bytecode": "0x608060405234801561001057600080fd5b5061002d61002261003260201b60201c565b61003a60201b60201c565b6100fe565b600033905090565b60008060009054906101000a900473ffffffffffffffffffffffffffffffffffffffff169050816000806101000a81548173ffffffffffffffffffffffffffffffffffffffff021916908373ffffffffffffffffffffffffffffffffffffffff1602179055508173ffffffffffffffffffffffffffffffffffffffff168173ffffffffffffffffffffffffffffffffffffffff167f8be0079c531659141344cd1fd0a4f28419497f9722a3daafe3b4186f6b6457e060405160405180910390a35050565b6115f68061010d6000396000f3fe6080604052600436106100915760003560e01c8063aa6acb6f11610059578063aa6acb6f1461015a578063b5627e4214610185578063d814b5b3146101b0578063f2fde38b146101d9578063fe6bcd7c1461020257610091565b80632229f7ea1461009657806347e7ef24146100d35780634b8a3529146100ef578063715018a6146101185780638da5cb5b1461012f575b600080fd5b3480156100a257600080fd5b506100bd60048036038101906100b89190610f89565b61023f565b6040516100ca9190610fc5565b60405180910390f35b6100ed60048036038101906100e89190611016565b6102a8565b005b3480156100fb57600080fd5b5061011660048036038101906101119190611016565b61066b565b005b34801561012457600080fd5b5061012d610a4d565b005b34801561013b57600080fd5b50610144610a61565b6040516101519190610fc5565b60405180910390f35b34801561016657600080fd5b5061016f610a8a565b60405161017c9190611065565b60405180910390f35b34801561019157600080fd5b5061019a610a8f565b6040516101a79190611065565b60405180910390f35b3480156101bc57600080fd5b506101d760048036038101906101d29190611080565b610a97565b005b3480156101e557600080fd5b5061020060048036038101906101fb9190610f89565b610b21565b005b34801561020e57600080fd5b5061022960048036038101906102249190610f89565b610ba5565b6040516102369190611065565b60405180910390f35b6000600160008373ffffffffffffffffffffffffffffffffffffffff1673ffffffffffffffffffffffffffffffffffffffff16815260200190815260200160002060009054906101000a900473ffffffffffffffffffffffffffffffffffffffff169050919050565b81600073ffffffffffffffffffffffffffffffffffffffff16600160008373ffffffffffffffffffffffffffffffffffffffff1673ffffffffffffffffffffffffffffffffffffffff16815260200190815260200160002060009054906101000a900473ffffffffffffffffffffffffffffffffffffffff1673ffffffffffffffffffffffffffffffffffffffff16141561036f576040517f3948503100000000000000000000000000000000000000000000000000000000815260040160405180910390fd5b8160008114156103ab576040517f9d2c667d00000000000000000000000000000000000000000000000000000000815260040160405180910390fd5b6104496040518060400160405280601381526020017f7072696365206665656420616464726573732000000000000000000000000000815250600160008773ffffffffffffffffffffffffffffffffffffffff1673ffffffffffffffffffffffffffffffffffffffff16815260200190815260200160002060009054906101000a900473ffffffffffffffffffffffffffffffffffffffff16610c64565b60006104bd600160008773ffffffffffffffffffffffffffffffffffffffff1673ffffffffffffffffffffffffffffffffffffffff16815260200190815260200160002060009054906101000a900473ffffffffffffffffffffffffffffffffffffffff1685610d0090919063ffffffff16565b905080600460003373ffffffffffffffffffffffffffffffffffffffff1673ffffffffffffffffffffffffffffffffffffffff168152602001908152602001600020600082825461050e91906110ef565b9250508190555083600260003373ffffffffffffffffffffffffffffffffffffffff1673ffffffffffffffffffffffffffffffffffffffff16815260200190815260200160002060008773ffffffffffffffffffffffffffffffffffffffff1673ffffffffffffffffffffffffffffffffffffffff16815260200190815260200160002060008282546105a191906110ef565b9250508190555060008573ffffffffffffffffffffffffffffffffffffffff166323b872dd3330886040518463ffffffff1660e01b81526004016105e793929190611145565b6020604051808303816000875af1158015610606573d6000803e3d6000fd5b505050506040513d601f19601f8201168201806040525081019061062a91906111b4565b905080610663576040517fd472deb500000000000000000000000000000000000000000000000000000000815260040160405180910390fd5b505050505050565b8060008114156106a7576040517f9d2c667d00000000000000000000000000000000000000000000000000000000815260040160405180910390fd5b82600073ffffffffffffffffffffffffffffffffffffffff16600160008373ffffffffffffffffffffffffffffffffffffffff1673ffffffffffffffffffffffffffffffffffffffff16815260200190815260200160002060009054906101000a900473ffffffffffffffffffffffffffffffffffffffff1673ffffffffffffffffffffffffffffffffffffffff16141561076e576040517f3948503100000000000000000000000000000000000000000000000000000000815260040160405180910390fd5b828473ffffffffffffffffffffffffffffffffffffffff166370a08231306040518263ffffffff1660e01b81526004016107a89190610fc5565b602060405180830381865afa1580156107c5573d6000803e3d6000fd5b505050506040513d601f19601f820116820180604052508101906107e991906111f6565b1015610821576040517fb19e921500000000000000000000000000000000000000000000000000000000815260040160405180910390fd5b82600360003373ffffffffffffffffffffffffffffffffffffffff1673ffffffffffffffffffffffffffffffffffffffff16815260200190815260200160002060008673ffffffffffffffffffffffffffffffffffffffff1673ffffffffffffffffffffffffffffffffffffffff16815260200190815260200160002060008282546108ad91906110ef565b925050819055506305f5e1006108c233610ba5565b10156108fa576040517fac8f432c00000000000000000000000000000000000000000000000000000000815260040160405180910390fd5b82600360003373ffffffffffffffffffffffffffffffffffffffff1673ffffffffffffffffffffffffffffffffffffffff16815260200190815260200160002060008673ffffffffffffffffffffffffffffffffffffffff1673ffffffffffffffffffffffffffffffffffffffff168152602001908152602001600020600082825461098691906110ef565b9250508190555060008473ffffffffffffffffffffffffffffffffffffffff1663a9059cbb33866040518363ffffffff1660e01b81526004016109ca929190611223565b6020604051808303816000875af11580156109e9573d6000803e3d6000fd5b505050506040513d601f19601f82011682018060405250810190610a0d91906111b4565b905080610a46576040517fd472deb500000000000000000000000000000000000000000000000000000000815260040160405180910390fd5b5050505050565b610a55610d32565b610a5f6000610db0565b565b60008060009054906101000a900473ffffffffffffffffffffffffffffffffffffffff16905090565b605081565b6305f5e10081565b610a9f610d32565b80600160008473ffffffffffffffffffffffffffffffffffffffff1673ffffffffffffffffffffffffffffffffffffffff16815260200190815260200160002060006101000a81548173ffffffffffffffffffffffffffffffffffffffff021916908373ffffffffffffffffffffffffffffffffffffffff1602179055505050565b610b29610d32565b600073ffffffffffffffffffffffffffffffffffffffff168173ffffffffffffffffffffffffffffffffffffffff161415610b99576040517f08c379a0000000000000000000000000000000000000000000000000000000008152600401610b90906112cf565b60405180910390fd5b610ba281610db0565b50565b60008060646050600460008673ffffffffffffffffffffffffffffffffffffffff1673ffffffffffffffffffffffffffffffffffffffff16815260200190815260200160002054610bf691906112ef565b610c009190611378565b9050600560008473ffffffffffffffffffffffffffffffffffffffff1673ffffffffffffffffffffffffffffffffffffffff168152602001908152602001600020546305f5e10082610c5291906112ef565b610c5c9190611378565b915050919050565b610cfc8282604051602401610c7a929190611431565b6040516020818303038152906040527f319af333000000000000000000000000000000000000000000000000000000007bffffffffffffffffffffffffffffffffffffffffffffffffffffffff19166020820180517bffffffffffffffffffffffffffffffffffffffffffffffffffffffff8381831617835250505050610e74565b5050565b6000806305f5e10084610d1285610e9d565b610d1c91906112ef565b610d269190611378565b90508091505092915050565b610d3a610f1e565b73ffffffffffffffffffffffffffffffffffffffff16610d58610a61565b73ffffffffffffffffffffffffffffffffffffffff1614610dae576040517f08c379a0000000000000000000000000000000000000000000000000000000008152600401610da5906114ad565b60405180910390fd5b565b60008060009054906101000a900473ffffffffffffffffffffffffffffffffffffffff169050816000806101000a81548173ffffffffffffffffffffffffffffffffffffffff021916908373ffffffffffffffffffffffffffffffffffffffff1602179055508173ffffffffffffffffffffffffffffffffffffffff168173ffffffffffffffffffffffffffffffffffffffff167f8be0079c531659141344cd1fd0a4f28419497f9722a3daafe3b4186f6b6457e060405160405180910390a35050565b60008151905060006a636f6e736f6c652e6c6f679050602083016000808483855afa5050505050565b6000808273ffffffffffffffffffffffffffffffffffffffff1663feaf968c6040518163ffffffff1660e01b815260040160a060405180830381865afa158015610eeb573d6000803e3d6000fd5b505050506040513d601f19601f82011682018060405250810190610f0f9190611545565b50505091505080915050919050565b600033905090565b600080fd5b600073ffffffffffffffffffffffffffffffffffffffff82169050919050565b6000610f5682610f2b565b9050919050565b610f6681610f4b565b8114610f7157600080fd5b50565b600081359050610f8381610f5d565b92915050565b600060208284031215610f9f57610f9e610f26565b5b6000610fad84828501610f74565b91505092915050565b610fbf81610f4b565b82525050565b6000602082019050610fda6000830184610fb6565b92915050565b6000819050919050565b610ff381610fe0565b8114610ffe57600080fd5b50565b60008135905061101081610fea565b92915050565b6000806040838503121561102d5761102c610f26565b5b600061103b85828601610f74565b925050602061104c85828601611001565b9150509250929050565b61105f81610fe0565b82525050565b600060208201905061107a6000830184611056565b92915050565b6000806040838503121561109757611096610f26565b5b60006110a585828601610f74565b92505060206110b685828601610f74565b9150509250929050565b7f4e487b7100000000000000000000000000000000000000000000000000000000600052601160045260246000fd5b60006110fa82610fe0565b915061110583610fe0565b9250827fffffffffffffffffffffffffffffffffffffffffffffffffffffffffffffffff0382111561113a576111396110c0565b5b828201905092915050565b600060608201905061115a6000830186610fb6565b6111676020830185610fb6565b6111746040830184611056565b949350505050565b60008115159050919050565b6111918161117c565b811461119c57600080fd5b50565b6000815190506111ae81611188565b92915050565b6000602082840312156111ca576111c9610f26565b5b60006111d88482850161119f565b91505092915050565b6000815190506111f081610fea565b92915050565b60006020828403121561120c5761120b610f26565b5b600061121a848285016111e1565b91505092915050565b60006040820190506112386000830185610fb6565b6112456020830184611056565b9392505050565b600082825260208201905092915050565b7f4f776e61626c653a206e6577206f776e657220697320746865207a65726f206160008201527f6464726573730000000000000000000000000000000000000000000000000000602082015250565b60006112b960268361124c565b91506112c48261125d565b604082019050919050565b600060208201905081810360008301526112e8816112ac565b9050919050565b60006112fa82610fe0565b915061130583610fe0565b9250817fffffffffffffffffffffffffffffffffffffffffffffffffffffffffffffffff048311821515161561133e5761133d6110c0565b5b828202905092915050565b7f4e487b7100000000000000000000000000000000000000000000000000000000600052601260045260246000fd5b600061138382610fe0565b915061138e83610fe0565b92508261139e5761139d611349565b5b828204905092915050565b600081519050919050565b60005b838110156113d25780820151818401526020810190506113b7565b838111156113e1576000848401525b50505050565b6000601f19601f8301169050919050565b6000611403826113a9565b61140d818561124c565b935061141d8185602086016113b4565b611426816113e7565b840191505092915050565b6000604082019050818103600083015261144b81856113f8565b905061145a6020830184610fb6565b9392505050565b7f4f776e61626c653a2063616c6c6572206973206e6f7420746865206f776e6572600082015250565b600061149760208361124c565b91506114a282611461565b602082019050919050565b600060208201905081810360008301526114c68161148a565b9050919050565b600069ffffffffffffffffffff82169050919050565b6114ec816114cd565b81146114f757600080fd5b50565b600081519050611509816114e3565b92915050565b6000819050919050565b6115228161150f565b811461152d57600080fd5b50565b60008151905061153f81611519565b92915050565b600080600080600060a0868803121561156157611560610f26565b5b600061156f888289016114fa565b955050602061158088828901611530565b9450506040611591888289016111e1565b93505060606115a2888289016111e1565b92505060806115b3888289016114fa565b915050929550929590935056fea2646970667358221220826586c8018e011c1a50f544b441c8e2e3ec7ebe31c4d42774f2347b89eab0ba64736f6c634300080b0033",
  "devdoc": {
    "kind": "dev",
    "methods": {
      "owner()": {
        "details": "Returns the address of the current owner."
      },
      "renounceOwnership()": {
        "details": "Leaves the contract without owner. It will not be possible to call `onlyOwner` functions anymore. Can only be called by the current owner. NOTE: Renouncing ownership will leave the contract without an owner, thereby removing any functionality that is only available to the owner."
      },
      "transferOwnership(address)": {
        "details": "Transfers ownership of the contract to a new account (`newOwner`). Can only be called by the current owner."
      }
    },
    "version": 1
  },
  "userdoc": {
    "kind": "user",
    "methods": {},
    "version": 1
  },
  "storageLayout": {
    "storage": [
      {
        "astId": 53,
        "contract": "contracts/LendingPool.sol:LendingPool",
        "label": "_owner",
        "offset": 0,
        "slot": "0",
        "type": "t_address"
      },
      {
        "astId": 283,
        "contract": "contracts/LendingPool.sol:LendingPool",
        "label": "s_tokenToPriceFeedAddress",
        "offset": 0,
        "slot": "1",
        "type": "t_mapping(t_address,t_address)"
      },
      {
        "astId": 289,
        "contract": "contracts/LendingPool.sol:LendingPool",
        "label": "s_userToTokenToBalance",
        "offset": 0,
        "slot": "2",
        "type": "t_mapping(t_address,t_mapping(t_address,t_uint256))"
      },
      {
        "astId": 295,
        "contract": "contracts/LendingPool.sol:LendingPool",
        "label": "s_userToTokenToBorrowedAmount",
        "offset": 0,
        "slot": "3",
        "type": "t_mapping(t_address,t_mapping(t_address,t_uint256))"
      },
      {
        "astId": 299,
        "contract": "contracts/LendingPool.sol:LendingPool",
        "label": "s_userToCollateralInUSD",
        "offset": 0,
        "slot": "4",
        "type": "t_mapping(t_address,t_uint256)"
      },
      {
        "astId": 303,
        "contract": "contracts/LendingPool.sol:LendingPool",
        "label": "s_userToBorrowedAmountInUSD",
        "offset": 0,
        "slot": "5",
        "type": "t_mapping(t_address,t_uint256)"
      }
    ],
    "types": {
      "t_address": {
        "encoding": "inplace",
        "label": "address",
        "numberOfBytes": "20"
      },
      "t_mapping(t_address,t_address)": {
        "encoding": "mapping",
        "key": "t_address",
        "label": "mapping(address => address)",
        "numberOfBytes": "32",
        "value": "t_address"
      },
      "t_mapping(t_address,t_mapping(t_address,t_uint256))": {
        "encoding": "mapping",
        "key": "t_address",
        "label": "mapping(address => mapping(address => uint256))",
        "numberOfBytes": "32",
        "value": "t_mapping(t_address,t_uint256)"
      },
      "t_mapping(t_address,t_uint256)": {
        "encoding": "mapping",
        "key": "t_address",
        "label": "mapping(address => uint256)",
        "numberOfBytes": "32",
        "value": "t_uint256"
      },
      "t_uint256": {
        "encoding": "inplace",
        "label": "uint256",
        "numberOfBytes": "32"
      }
    }
  }
}