{
  "address": "0x103A3b128991781EE2c8db0454cA99d67b257923",
  "abi": [
    {
      "inputs": [
        {
          "internalType": "uint256",
          "name": "amountIn",
          "type": "uint256"
        }
      ],
      "name": "swapExactInputSingle",
      "outputs": [
        {
          "internalType": "uint256",
          "name": "amountOut",
          "type": "uint256"
        }
      ],
      "stateMutability": "nonpayable",
      "type": "function"
    },
    {
      "stateMutability": "payable",
      "type": "receive"
    }
  ],
  "transactionHash": "0x677cf8ff65d8669f47f46377aef4b078647e9f38a5bf65e64200ef1931ba1e8c",
  "args": [],
  "numDeployments": 1,
  "solcInputHash": "d58af0ec6b1c60c2cd02e6b65a103a7d",
  "bytecode": "0x608060405234801561001057600080fd5b5061095f806100206000396000f3fe6080604052600436106100225760003560e01c806373bd43ad1461002e57610029565b3661002957005b600080fd5b34801561003a57600080fd5b5061005560048036038101906100509190610507565b61006b565b6040516100629190610543565b60405180910390f35b600061008d73c02aaa39b223fe8d0a0e5c4f27ead9083c756cc233308561021f565b6100c073c02aaa39b223fe8d0a0e5c4f27ead9083c756cc273e592427a0aece92de3edee1f18e0157c0586156484610377565b600060405180610100016040528073c02aaa39b223fe8d0a0e5c4f27ead9083c756cc273ffffffffffffffffffffffffffffffffffffffff168152602001736b175474e89094c44da98b954eedeac495271d0f73ffffffffffffffffffffffffffffffffffffffff168152602001610bb862ffffff1681526020013373ffffffffffffffffffffffffffffffffffffffff16815260200142815260200184815260200160008152602001600073ffffffffffffffffffffffffffffffffffffffff16815250905073e592427a0aece92de3edee1f18e0157c0586156473ffffffffffffffffffffffffffffffffffffffff1663414bf389826040518263ffffffff1660e01b81526004016101d4919061067d565b6020604051808303816000875af11580156101f3573d6000803e3d6000fd5b505050506040513d601f19601f8201168201806040525081019061021791906106ae565b915050919050565b6000808573ffffffffffffffffffffffffffffffffffffffff166323b872dd60e01b868686604051602401610256939291906106ea565b604051602081830303815290604052907bffffffffffffffffffffffffffffffffffffffffffffffffffffffff19166020820180517bffffffffffffffffffffffffffffffffffffffffffffffffffffffff83818316178352505050506040516102c0919061079b565b6000604051808303816000865af19150503d80600081146102fd576040519150601f19603f3d011682016040523d82523d6000602084013e610302565b606091505b5091509150818015610330575060008151148061032f57508080602001905181019061032e91906107ea565b5b5b61036f576040517f08c379a000000000000000000000000000000000000000000000000000000000815260040161036690610874565b60405180910390fd5b505050505050565b6000808473ffffffffffffffffffffffffffffffffffffffff1663095ea7b360e01b85856040516024016103ac929190610894565b604051602081830303815290604052907bffffffffffffffffffffffffffffffffffffffffffffffffffffffff19166020820180517bffffffffffffffffffffffffffffffffffffffffffffffffffffffff8381831617835250505050604051610416919061079b565b6000604051808303816000865af19150503d8060008114610453576040519150601f19603f3d011682016040523d82523d6000602084013e610458565b606091505b5091509150818015610486575060008151148061048557508080602001905181019061048491906107ea565b5b5b6104c5576040517f08c379a00000000000000000000000000000000000000000000000000000000081526004016104bc90610909565b60405180910390fd5b5050505050565b600080fd5b6000819050919050565b6104e4816104d1565b81146104ef57600080fd5b50565b600081359050610501816104db565b92915050565b60006020828403121561051d5761051c6104cc565b5b600061052b848285016104f2565b91505092915050565b61053d816104d1565b82525050565b60006020820190506105586000830184610534565b92915050565b600073ffffffffffffffffffffffffffffffffffffffff82169050919050565b60006105898261055e565b9050919050565b6105998161057e565b82525050565b600062ffffff82169050919050565b6105b78161059f565b82525050565b6105c6816104d1565b82525050565b6105d58161055e565b82525050565b610100820160008201516105f26000850182610590565b5060208201516106056020850182610590565b50604082015161061860408501826105ae565b50606082015161062b6060850182610590565b50608082015161063e60808501826105bd565b5060a082015161065160a08501826105bd565b5060c082015161066460c08501826105bd565b5060e082015161067760e08501826105cc565b50505050565b60006101008201905061069360008301846105db565b92915050565b6000815190506106a8816104db565b92915050565b6000602082840312156106c4576106c36104cc565b5b60006106d284828501610699565b91505092915050565b6106e48161057e565b82525050565b60006060820190506106ff60008301866106db565b61070c60208301856106db565b6107196040830184610534565b949350505050565b600081519050919050565b600081905092915050565b60005b8381101561075557808201518184015260208101905061073a565b83811115610764576000848401525b50505050565b600061077582610721565b61077f818561072c565b935061078f818560208601610737565b80840191505092915050565b60006107a7828461076a565b915081905092915050565b60008115159050919050565b6107c7816107b2565b81146107d257600080fd5b50565b6000815190506107e4816107be565b92915050565b600060208284031215610800576107ff6104cc565b5b600061080e848285016107d5565b91505092915050565b600082825260208201905092915050565b7f5354460000000000000000000000000000000000000000000000000000000000600082015250565b600061085e600383610817565b915061086982610828565b602082019050919050565b6000602082019050818103600083015261088d81610851565b9050919050565b60006040820190506108a960008301856106db565b6108b66020830184610534565b9392505050565b7f5341000000000000000000000000000000000000000000000000000000000000600082015250565b60006108f3600283610817565b91506108fe826108bd565b602082019050919050565b60006020820190508181036000830152610922816108e6565b905091905056fea26469706673582212207d560dedabd676f39fb62f0f456b3c66d5f919a562de70075643c0420251cfce64736f6c634300080b0033",
  "devdoc": {
    "kind": "dev",
    "methods": {},
    "version": 1
  },
  "userdoc": {
    "kind": "user",
    "methods": {},
    "version": 1
  },
  "storageLayout": {
    "storage": [],
    "types": null
  }
}